S01F00007265616C5F74696D655F636C6F636B5F41546D656761382E7372656322
S113000012C02CC02BC02BC029C028C027C026C0BA
S113001025C0A4C123C022C021C020C01FC01EC04F
S11300201DC01CC01BC011241FBECFE5D4E0DEBF21
S1130030CDBF10E0A0E6B0E0E4E0F4E002C005903B
S11300400D92A637B107D9F720E0A6E7B0E001C0CA
S11300501D92A038B207E1F72ED1D2C1D1CF1F92A1
S11300600F920FB60F9211248F939F93AF93BF9368
S113007080917C0090917D00A0917E00B0917F00E2
S11300800196A11DB11D80937C0090937D00A093E7
S11300907E00B0937F0080916000813021F081E088
S11300A08093600003C082E080936000BF91AF91B1
S11300B09F918F910F900FBE0F901F90189588B34A
S11300C0807C88BB87B38F6387BB12BA8FEF81BBF9
S11300D085B38F6185BB85B38F7D85BB84B3807EFB
S11300E084BB84B3806284BB0895F89482B588602D
S11300F082BD01C0000082B58830E1F785B5886013
S113010085BD85B58F7B85BD85B5856085BD8FEF44
S113011083BD89B7806889BF18BE80B7826080BFFD
S113012014BC7894089520E13EE040E050E046D1CC
S1130130C9010895CF92DF92EF92FF920F2EFCE354
S1130140CF2ED12CE12CF12CF02DA701960136D124
S1130150CA01B901A701960131D1CB01FF90EF90FB
S1130160DF90CF9008958F929F92AF92BF92CF92DB
S1130170DF92EF92FF9249015A010F2EFAE0CF2E3F
S1130180D12CE12CF12CF02DA701960117D160930D
S11301907B0020937A00C501B401A70196010ED11A
S11301A06093790020937800FF90EF90DF90CF90D8
S11301B0BF90AF909F908F9008958091610082309E
S11301C0A1F018F4813031F008958330C9F08430FF
S11301D071F1089512BAE0917B00F0E0E459FF4F09
S11301E0808182BB88E088BB089512BAE0917A00CE
S11301F0F0E0E459FF4F808182BB84E088BB08951E
S113020012BA80916000813041F4E0917900F0E00D
S1130210E459FF4F808182BB07C0E0917900F0E090
S1130220EE59FF4F808182BB82E088BB089512BAE9
S1130230E0917800F0E0E459FF4F808182BB81E0D7
S113024088BB0895809177008E31A1F480917C0061
S113025090917D00A0917E00B0917F00805F914FCE
S1130260AF4FBF4F80937C0090937D00A0937E009E
S1130270B0937F00809176008E3199F480917C0058
S113028090917D00A0917E00B0917F00CC96A11D3D
S1130290B11D80937C0090937D00A0937E00B09369
S11302A07F00089583B7846083BF89B7816089BF65
S11302B082EB82BF089503DF18DFF4DFC0907C0077
S11302C0D0907D00E0907E00F0907F00C701B601E1
S11302D02ADFEC01C701B6012DDF9E01DD0F440BBF
S11302E0550BBC01990F880B990B3DDF66DF80919C
S11302F07C0090917D00A0917E00B0917F008138B8
S11303009145A140B105D0F210927C0010927D007D
S113031010927E0010927F00D1CF999906C08091EF
S113032077008F5F8093770002C0109277008091EE
S113033077008F3110F0109277009A9906C080915F
S113034076008F5F8093760002C0109276008091D1
S113035076008F3110F01092760008951F920F925C
S11303600FB60F9211242F933F934F935F936F9384
S11303707F938F939F93AF93BF93EF93FF9380915A
S113038061008F5F80936100853018F081E0809375
S11303906100C3DF57DF82EB82BFFF91EF91BF9112
S11303A0AF919F918F917F916F915F914F913F9109
S11303B02F910F900FBE0F901F901895A1E21A2E47
S11303C0AA1BBB1BFD010DC0AA1FBB1FEE1FFF1FF5
S11303D0A217B307E407F50720F0A21BB30BE40B45
S11303E0F50B661F771F881F991F1A9469F760958C
S11303F07095809590959B01AC01BD01CF01089546
S1070400F894FFCF9A
S11304040101BF86DBCFE6EDFD87FFEF3F065B4FBF
S1090414666D7D077F6F99
S9030000FC
