S01F00007265616C5F74696D655F636C6F636B5F41546D656761382E7372656322
S113000012C02CC02BC02BC029C028C027C026C0BA
S113001025C024C023C022C021C020C01FC01EC0D0
S11300201DC01CC01BC011241FBECFE5D4E0DEBF21
S1130030CDBF10E0A0E6B0E0EEE5F3E002C005902D
S11300400D92A637B107D9F720E0A6E7B0E001C0CA
S11300501D92AE37B207E1F7FDD07FC1D1CF1F9219
S11300600F920FB60F9211248F939F93AF93BF9368
S113007080917A0090917B00A0917C00B0917D00EA
S11300800196A11DB11D80937A0090937B00A093EB
S11300907C00B0937D0080916000813021F081E08C
S11300A08093600003C082E080936000BF91AF91B1
S11300B09F918F910F900FBE0F901F90189588B34A
S11300C0807C88BB87B38F6387BB12BA8FEF81BBF9
S11300D085B38F6185BB85B38F7D85BB84B3807EFB
S11300E084BB84B3806284BB0895F89482B588602D
S11300F082BD01C0000082B58830E1F785B5886013
S113010085BD85B58F7B85BD85B5856085BD8FEF44
S113011083BD89B7806889BF18BE80B7826080BFFD
S113012014BC7894089520E13EE040E050E0F3D020
S1130130C9010895CF92DF92EF92FF920F2EFCE354
S1130140CF2ED12CE12CF12CF02DA7019601E3D078
S1130150CA01B901A7019601DED0CB01FF90EF904F
S1130160DF90CF9008958F929F92AF92BF92CF92DB
S1130170DF92EF92FF9249015A010F2EFAE0CF2E3F
S1130180D12CE12CF12CF02DA7019601C4D0609361
S1130190790020937800C501B401A7019601BBD072
S11301A06093770020937600FF90EF90DF90CF90DC
S11301B0BF90AF909F908F90089512BAE09179000C
S11301C0F0E0E559FF4F808182BB88E088BB8FEC6B
S11301D097E00197F1F700C0000012BAE0917800AF
S11301E0F0E0E559FF4F808182BB84E088BB8FEC4F
S11301F097E00197F1F700C0000012BA8091600007
S1130200813041F4E0917700F0E0E559FF4F8081BF
S113021082BB07C0E0917700F0E0EF59FF4F808187
S113022082BB82E088BB8FEC97E00197F1F700C0B6
S1130230000012BAE0917600F0E0E559FF4F8081AA
S113024082BB81E088BB8FEC97E00197F1F700C097
S11302500000089534DF49DFC0907A00D0907B001D
S1130260E0907C00F0907D00C701B6015CDFEC01FA
S1130270C701B6015FDF9E01DD0F440B550BBC01C6
S1130280990F880B990B6FDF98DF999916C08091AD
S11302907A0090917B00A0917C00B0917D00805FFA
S11302A0914FAF4FBF4F80937A0090937B00A09300
S11302B07C00B0937D00999BFECF9A9915C08091E4
S11302C07A0090917B00A0917C00B0917D00CC9647
S11302D0A11DB11D80937A0090937B00A0937C00B4
S11302E0B0937D009A9BFECF80917A0090917B0021
S11302F0A0917C00B0917D0081389145A140B10569
S113030008F4AACF10927A0010927B0010927C001D
S113031010927D00A1CFA1E21A2EAA1BBB1BFD01E6
S11303200DC0AA1FBB1FEE1FFF1FA217B307E407D0
S1130330F50720F0A21BB30BE40BF50B661F771F28
S1130340881F991F1A9469F7609570958095909508
S11103509B01AC01BD01CF010895F894FFCFCD
S113035E01BF86DBCFE6EDFD87FFEF3F065B4F6601
S109036E6D7D077F6F00A6
S9030000FC
